:10000000801A0020C1950200D18C0000D58C000020
:10001000A70B0000000000000000FFFF54000000DC
:1000200004180F00000000000000000000000000A5
:1000300000000000000000000000000000000000C0
:10004000000000000000000000000000B0010000FF
:0400500000000000AC
:10005400801A0020C1950200D18C0000D58C0000CC
:10006400A70A0A010002000004180FAC5065B00191
:10007400000000000000000000000000000000007C
:10008400000000000000000000000000000000006C
:100094000000000000000000FFFFFFFFFFFFFFFF64
:1000A400FFFFFFFF00600F000000000000E00F00F2
:1000B400FFFFFFFFFFFFFFFF8000000000000000C4
:1000C400000000000000000000000000000000002C
:1000D400A8480020A83C0020A83C0020A83C002000
:1000E400801A0020B4570300B0A30200201100209E
:0C00F400E410002000E00F00A8480020ED
:10020000801A0020C1950200D18C0000D58C00001E
:10021000DD8C0000D98C0000E18C0000BF9502004D
:10022000BF950200BF950200BF950200BF95020076
:10023000E58C0000BF950200BF950200BF9502004B
:10024000588D0000588D0000588D0000588D00001A
:10025000588D000095A7000069B40000588D00007B
:10026000588D0000588D000055A50000588D0000E5
:10027000588D0000588D0000588D0000588D0000EA
:10028000588D0000588D0000588D0000BF95020069
:10029000588D0000C59E0000588D0000588D00004C
:1002A000588D0000C59F00009D9F0000588D0000E4
:1002B000588D0000588D0000588D0000513001000D
:1002C000DD2F0100D92F0100A52A01004D300100CA
:1002D000E12F010001300100E52F0100ED1B0100BD
:1002E00095300100588D0000588D0000E98F000006
:1002F000588D0000588D0000588D0000BF950200F9
:10030000588D0000588D0000588D0000588D000059
:10031000588D0000588D0000588D0000588D000049
:10032000588D0000588D0000588D0000588D000039
:04033000588D0000E4
:10033400F8B500BFF8BC08BC9E467047F8B500BFCE
:10034400F8BC08BC9E46704710B5054C237833B9F9
:10035400044B13B1044800E000BF0123237010BD17
:10036400D8200020000000005451030008B5034BBE
:100374001BB10349034800E000BF08BD00000000B2
:10038400DC20002054510300154B002B08BF134BF5
:100394009D46A3F5803A00218B460F461348144A24
:1003A400121A29F0F1FF0F4B002B00D098470E4B87
:1003B400002B00D098470020002104000D000D48B8
:1003C400002802D00C4800E000BF29F09FFF200065
:1003D40029000EF009FA29F085FF00BF000008008B
:1003E400801A00200000000000000000D820002037
:1003F400A83C0020000000000000000008B5012017
:1004040003F06EFA0022044B01201A700CF0CEFEA9
:10041400BDE8084003F053BA3034002008B5012089
:100424001CF034FF02481CF0A9FE024B187008BDF2
:10043400FCA402003834002008B503F0CDF80128EC
:1004440005D0034B1878BDE808401CF07FBE08BDFA
:100454003834002010B50C1E03D11CF005FE00201A
:1004640010BD02DB1CF00CFEF9E70220F8E7B1F541
:10047400000F02D20902FFF7EDBF0220704700000F
:100484002DE9F0414FF00C0C00269846134B144F05
:100494001B88F4B29C4202D30220BDE8F0810CFB1D
:1004A40004F57C197D5D854205D165888D4202D1B4
:1004B4002579954201D00136EBE701F099F900283E
:1004C400EAD04146A068FFF7C5FF0028E4D19DF8B3
:1004D400183063719DF81C30A371DEE7941A002074
:1004E400881A002013B59DF81040CDE90034134656
:1004F4000022FFF7C5FF02B010BD002307B500932B
:10050400FFF7F0FF03B05DF804FB0000F0B54FF017
:100514000C0C00250C4B0D4E1F88EBB2BB4201D3D3
:100524000220F0BD0CFB03F3F418F35C834205D105
:1005340063888B4202D12379934201D00135ECE7E1
:100544000020A3681870ECE7941A0020881A002091
:100554000022FFF7DBBF00002DE9F04F1E46FF230A
:1005640093B0022E8046894614461C9D9DF874A0C3
:100574008DF81E3040F2BA802B785A072BD5042E02
:1005840040F2B48095F804B000235D4A02EBC30145
:100594000979DFB2FF2907D001330A2BF6D1209B5A
:1005A400002B40F0A780FF27002308AA0DF11F01AC
:1005B40020798DF81F3001F0FBFF78B1BDF82C30A5
:1005C4009DF81F00238003F073F98DF81D00C8B156
:1005D40013B0BDE8F08F95F802B0D5E7207901F0AB
:1005E40019F9FF28059000F08380207903F078F949
:1005F4008DF81D000028EBD1059B424800EB031049
:10060400438823804FF6FF72B8F1000F08BF4A46B3
:1006140061882388CDE9001258465246002105F02E
:1006240057F818B1E38843F02003E380209B0DF1D1
:100634001D010DA8CDE90D340F95ADF84090ADF82E
:1006440042608DF844808DF845A002F002F810B1A4
:100654009DF81D00BCE7284604F092FFA01D04F09D
:100664007DFF22464946404605F042F980B2B04239
:100674002CD39DF87C3022460393BDF8783049464C
:1006840002930DF11E03CDE900534046F3B200F08E
:1006940088FD8DF81D00209A9DF81D30D2B15BBBFA
:1006A4009DF81E20FF2A08D0092F06D8144B03EB0F
:1006B400C7010A71209A43F837209DF81D3013B9F9
:1006C400112001F04FFF03F0FAF8C1E774238DF80D
:1006D4001D30E0E7BA2BF0D1E388DB06EDD500232B
:1006E40001208DF81D3002F07DFFE6E701206FE761
:1006F400A3206DE7B4206BE7BA2BEDD0E3E700BF8E
:10070400F420002040340020002310B51946FF24B3
:10071400034AD018047199500833502BF9D110BDF5
:10072400F420002010B586B0089C088104940024AD
:10073400CDE902440124CDE9003413460A460146BA
:100744000320FFF709FF06B010BD13B50024009481
:10075400FFF7E8FF02B010BD2DE9FF410F469046B8
:10076400054688B381B37AB300266946F0B215F022
:1007740045FA044630B99DF80030032B06D0013603
:10078400032EF2D1204604B0BDE8F0819DF801208B
:100794002B799A42F3D1BDF802206B889A42EED1AC
:1007A4009DF806309DF805003A4600EB03209DF8BD
:1007B400043080B26B71288143462946FFF7C5FF98
:1007C4000028DCD00446DDE70224DBE710B586B060
:1007D400089C04940024CDE902440124CDE90034AA
:1007E40013460A4601460620FFF7B6FE06B010BDC2
:1007F40013B500240094FFF7E9FF02B010BDF0B573
:1008040002288BB005460E4614461F460AD106A997
:10081400F0B215F0F3F998B99DF8193023719DF8E9
:100824001C3063710022119BCDE902220493109BBA
:100834000192009322463B4631462846FFF78CFE40
:100844000BB0F0BD13B500240194049C0094FFF791
:10085400D6FF02B010BD000007B5094A0346108850
:1008640031B9084A084903B05DF804EB03F096BCBB
:100874000091064A064903F091FC03B05DF804FBBD
:10088400E221002004AD0200BFA70200BA1B03004E
:10089400C6A702007FB505460E461DF08FFF04462D
:1008A40003462A460C49022003F05CFC8CB986B14D
:1008B40001238DF80E30032322460093362103AB27
:1008C4004FF6FC708DF80C408DF80D5006F086FB49
:1008D4000446204604B070BDA8A70200FF2810B546
:1008E4000C4604D10220044903F03CFCFE202146BE
:1008F400BDE81040FFF7CEBF7EA80200F8B50F8810
:1009040005460C461646A7B900F0AAFD40B948F2C0
:10091400210362889A4203D17178284601F054FE7B
:100924006388B3F5004F02D9082001F0A3FE01202B
:1009340000E00020F8BD2DE9F04788B00C4692464F
:1009440099468046BDF84060119D22F0B5FE8DF8B1
:1009540008800746CDE90345ADF81460ADF81600EC
:100964008DF818A08DF8199000F0A8FA8DF81A00E7
:1009740000F0A6FA8DF81B0015F0EBFB8DF81C00B7
:1009840002A801F064FEA8B933462A462146384637
:1009940004F0BAFA70B933462A4621463846FFF7BE
:1009A400ADFF38B9CDE9007033462A4641462046AA
:1009B40004F0B4FE08B0BDE8F08700002DE9F04F64
:1009C40085B0804689461446BDF838600F9D9DF871
:1009D40040B01F46002B2CD0474A4849022003F060
:1009E400DDFB2388002B78D040F20912934276D0A5
:1009F400434A4449B3F5827F18BF0A466188019689
:100A040000910220404903F0C9FB23886BB1022EF8
:100A14000BD92B783D4913F0010F3D4AAB7818BF31
:100A24000A4602203B4903F0B9FB3B49022003F08C
:100A340099FB3A4A0023114602EBC300007958455A
:100A44004FD152F833A0002301EBC302107958456B
:100A54004DD1FF201071002241F8332047B923887B
:100A640033B9B4F90230002B02DB082001F07AFD1F
:100A7400012001F0FFFD9DB12878C30710D510F0C7
:100A8400040004D032460121284602F0F1FECDE9EB
:100A940001700095334622464946404601F068F805
:100AA400BAF1000F06D0CDE9005733462246494635
:100AB4004046D0473B46224649464046CDE900657C
:100AC40007F000F83346224649464046CDE90E5722
:100AD40005B0BDE8F04F01F073BD114A8EE7114A2D
:100AE4008CE701330A2BA7D14FF0000AABE701339F
:100AF4000A2BA9D1B2E700BF2DA7020035A7020037
:100B04001BA7020082A702003FA702001EA7020043
:100B140026A702006EA70200F7010300F4200020BC
:100B240014A7020018A70200962813B5044632D071
:100B34002BD891283AD094282DD0902814D100F0A5
:100B4400B7F9204B0090204A2049022003F00AFB09
:100B5400BC2C26D11E49022003F004FB01F083FDC6
:100B640001F082FD01F080FD204607F029F82046BF
:100B74000CF06AFF204601F084FD00B30220154901
:100B840002B0BDE8104003F0EDBAAF2807D8AB2897
:100B94000AD29828E8D1104B0B4A104909E0BC2826
:100BA400CCE725F045F8DDE79128F4D1054B064A5A
:100BB4000B49022003F0D6FA04F019FCD4E702B082
:100BC40010BD00BFD3A70200DCA70200E3A7020008
:100BD400F0A7020028A8020017A802001FA802001C
:100BE4000EA8020013B50F4C002002F061FE23682A
:100BF4006BB101A800F032FB48B923681A789DF85C
:100C040004309A4203D0012A07D1022B05D10323D1
:100C140001A8ADF804301EF053FD02F050FE02B0FE
:100C240010BD00BFDC21002010B5044602F045FED3
:100C3400204601F023FDBDE8104002F040BE000054
:100C44000B4B13B51B6804467BB1187801280CD1F3
:100C54002289E37A00920749074A03F083FA20467F
:100C640002B0BDE810401EF09BBB702002B010BD66
:100C7400DC2100205DA8020058A802000D4B37B506
:100C84001B68054693B11C780289012C08BF022415
:100C9400C37A094900920120084A03F063FA2946FD
:100CA400204603B0BDE830401EF0A6BC702003B05F
:100CB40030BD00BFDC2100205DA8020079A802003D
:100CC40010B5044600F0ECF80021631E04F10F0295
:100CD40013F8010FFF2808BF19709342F8D10023BD
:100CE400237410BD7FB504AB03E9030000231C4645
:100CF4009DF80D509DF80E601549D8B201EBC00265
:100D04005268EAB99DF80C109DF80B3000919DF8DB
:100D14000A201049022003F041FA25B12A460E495F
:100D2400022003F03BFA0D4A0220002C18BF224691
:100D3400BDF808300A4904B0BDE8704003F012BAA7
:100D440011F830000133B04208BF1446D5E700BFA4
:100D5400BCA8020085A7020096A7020081A7020092
:100D64009AA7020010B50BF00EF8012300224FF4ED
:100D7400E13120200DF010F907F0A0FD044608F041
:100D8400B3FA224603461249012003F0EBF907F0B7
:100D94009BFD044608F0B6FA224603460D4901209D
:100DA40003F0E0F907F08AFD012303FA00F040F2B2
:100DB400A17318420BD0084C207807F08BFD2078E3
:100DC40007F044FE2078BDE8104007F045BF10BD91
:100DD400F3A9020009AA0200D11A002037B50022A3
:100DE40001A8114601F0E9FB002846D11BF05EFF83
:100DF400034640B122490120224A03F0B3F9AA2153
:100E0400214807F0FFFB02F049FDFFF77DFC00F0ED
:100E14004DFB00F011FB0221084603F031FDFFF702
:100E2400E1FE01F043FE0022184B4FF400401A800B
:100E34005223174A174C1380174A184D138018F081
:100E44002DFC08F001F91BF0D9FF02F0C5FB0128C5
:100E540001D000F0F8FA0DF0F5F8FFF7EDFA2021D3
:100E6400002002F055F828B1224629464FF6FF70BB
:100E740003F094F902F025FDE3E7019803B030BDD7
:100E840058A902002DA7020069A9020062200020CF
:100E940064200020E1A9020066200020EFA90200DE
:100EA400024910237F22098807F0BCBF0E290300E2
:100EB4001CF072B81CF07CB81BF042BE22F0FCBEE1
:100EC4001FB5684622F006FCC8B902A924F000FC4C
:100ED400082269460DEB020002F063FC10B9002001
:100EE40004B010BD02A9012024F0F2FB08226946D7
:100EF4000DEB020002F055FC90B90120F0E722F05E
:100F0400DBFB4FF6FF739842044609D0002024F01F
:100F1400F7FB8442E3D0012024F0F2FB8442ECD0BE
:100F2400FF20DDE738B5054602F0DAFC044638B99F
:100F34004FF4A051284605F0C3FF044602F0BFFC5D
:100F4400204638BD7FB5054602F0B7FC1CF024F8F6
:100F540040B16B88B3F5006F04D1681D01F032FB1A
:100F6400044616E0284601F083FBD8B90446E6B2ED
:100F74006946304614F042FE80B99DF800306BB9E2
:100F84002946304614F0A0FE0028E9D075280BD07D
:100F94008C2402F094FC204604B070BD0134032C70
:100FA400E5D1F5E78D24F4E78B24F2E710B5044688
:100FB40002F083FC204601F059FB58B9204614F096
:100FC40051FE48B175280CBF8B24882402F077FCAD
:100FD400204610BD8D24F9E70446F7E7FF2337B513
:100FE40002A901F8013D044601F0DEFA18B19DF8AA
:100FF400070003B030BD094B03EB04131D7B15F050
:10100400AAF8854201D0FF20F3E7204600F06CFAED
:101014000028F8D0204600F095FCEAE74034002090
:101024002DE9F04107460D4601F0C0FA0646F0B935
:10103400384600F0EFFBFF2819D00E4C04EB0014E7
:1010440094F80C8015F087F8804510D1638801214D
:101054002B80A38838466B80A3792B7100F078FC31
:1010640031466871384600F073FC0126A871304699
:10107400BDE8F08140340020F8B504460E4615461C
:1010840000F0C8FBFF2802D14FF6FF70F8BD0B4BF0
:1010940003EB0010077B15F05EF88742F4D146B9E4
:1010A40001222946204600F079FC0028ECD0008873
:1010B400ECE7012EE8D10022F3E700BF4034002022
:1010C40010B5044602F0F9FB2046FFF72DFDBDE8FC
:1010D400104002F0F4BB000037B50C4B0D461B6802
:1010E4001C5C94420AD900922346094A0949022009
:1010F40003F038F80024204603B030BD0022014636
:101104000092234628461CF0F5FAF4E7401B002021
:101114002DA7020040A90200F0B5144699B003AD12
:101124000F46064602F0C9FB204652222946FFF725
:10113400D3FF84B28CB10DF10A0022F0ADFA0DF1A7
:101144000B0022F0B1FA9DF90B309DF80A20CDE98D
:10115400004539463046FFF7EEFB02F0B0FB19B00C
:10116400F0BD2DE9F0411D469AB005AC0F469046FE
:10117400064602F0A2FB522221462846FFF7ACFFA6
:1011840050B180B20090CDE901459DF880304246CF
:1011940039463046FFF712FC02F091FB1AB0BDE865
:1011A400F0812DE9F74307460E460A98194615467D
:1011B400BDF830809DF834901CF0C4FAFF28044632
:1011C4003AD00B9B1870062F34D8DFE807F00404DC
:1011D40004121929220003462A463146384622F0D1
:1011E400D1FC054620461CF04FF9284603B0BDE863
:1011F400F0830C2203461146284622F095FCF0E7C2
:10120400EA7A0346CDE900891146284622F04EFCCD
:10121400E7E703460C222946304622F0EDFBE0E7DF
:101224000190EB7A4A46009331462B46404622F021
:1012340007FCD6E70225D5E71825D6E70822014999
:1012440002F04CBA813B002010B5044608461BF05E
:101254008BFC2046BDE810401DF02EBC1DF02CBCBC
:101264000520704700207047032070470420704712
:1012740006F0B8BE06F028BE06F020BE014B187872
:10128400704700BF581B00204B207047024B186862
:101294005968FFF727BD00BF0650030013B5044685
:1012A40002F00BFB0DF1060022F0F6F90DF1070038
:1012B40022F0FAF99DF907209DF8061020460BF05C
:1012C40023FD30B99DF907209DF8061020460CF047
:1012D40023FE02F0F4FA02B010BD38B504460D4600
:1012E40002F0EBFA294620460BF042FE18B92946D3
:1012F40020460CF021FEBDE8384002F0E0BA38B5D3
:1013040004460D4602F0D9FA294620460BF066FD44
:1013140018B9294620460CF0EDFDBDE8384002F02E
:10132400CEBA704700F0A0B8704700002DE9F34131
:10133400224B16460193044640B13AB1002301AA58
:101344009D5C8D4233D00133042BF9D1022002B0CD
:10135400BDE8F081E35C93FAA3F30146180E02F0B2
:101364002DF9434603F10108DBB2BB42F2DBC2B202
:1013740092FAA2F2C0F30F2393FAA3F3100E1B0EFA
:1013840003EB0023DB4362199BB212F8020CD9B2BF
:10139400884211D112F8012CB2EB132F0CD1324632
:1013A4002146284602B0BDE8F04116F089BD00236D
:1013B4004FF6FF708F1ED5E7BD20C8E7080A0E124E
:1013C4002DE9F041164686B01D461A4B074603A880
:1013D40088461C7814F0A8FF16F0FD0F28D030B909
:1013E400BDF80C30990702D5032E08BF03243346F9
:1013F4002A4641463846009401F047F9FFF758FD64
:10140400854203D02946384606F01AFD022C0BD03B
:10141400FFF74EFDA84207D0B21E5342534129465E
:101424000022384606F056FD204606B0BDE8F0819D
:101434000324DCE74421002008B505F035FEBDE8AF
:10144400084003F0A9BF08B501F0B9F803F0CEFFD6
:101454000BF054FEBDE808400BF04ABF01F0F5B8AC
:1014640001F0F9B80020704738B504460D4601F084
:1014740011F929462046BDE838400DF0E7B901F0DE
:10148400ECB801F0F8B80000012310B5064A332B7C
:10149400194601D1002006E00233D41814F8034C95
:1014A4008442F4D1505C10BD29AA020001224FF4F9
:1014B4008271074B1A70074B1A709A71064A598049
:1014C4009A6000214FF4807299809A81704700BF1E
:1014D400452100204034002024AB0200014B187841
:1014E400704700BF45210020034B03EB0010407BF5
:1014F40000F00100704700BF403400204138032849
:101504008CBF002001207047413801288CBF002087
:1015140001207047433801288CBF00200120704708
:1015240000207047002070470388B3F57C4F01D337
:10153400FFF7F8BF0846FFF7F3BF10B54A880488E1
:10154400A2420DD1037B0C79234009D0B2F57C4F24
:1015540008D3FFF7E7FF0B891B1A5842584110BD07
:101564000020FCE70120FAE738B50D88D488A542AD
:101574000AD10388B3F57C4F08D2FFF7D5FF13894E
:101584001B1A5842584138BD0020FCE70120FAE7F5
:101594002DE9F04F4FF0000A8046154657468BB0B0
:1015A40001939DF85030DFF8D49105936F4B04916B
:1015B4001B780893089A5FFA8AF39A4201D8862026
:1015C40064E099F800300293D9F80830029A039342
:1015D40098F80030934240F0C28099F80D30D80753
:1015E40009D54FF0000B039B1B790793079A5FFA09
:1015F4008BF39A4204D80AF1010A09F11009D9E7D8
:10160400039B41461E68142303FB0B663046FFF719
:1016140094FF002800F09F803389069300230699E5
:101624009AB2914202D80BF1010BDFE70C227468E5
:10163400304602FB0344424621460993FFF794FFD8
:101644002279099B00287CD0049B03B11C6091067D
:101654001FD447480AE01A790C33920642BF13F8A4
:10166400090C3F18BFB29C42F5D84248059B074479
:1016740093B121463046FFF757FF23880246B8F856
:101684000210029800F073FF60BB7E200BB0BDE82F
:10169400F08F0027384BE6E7002D35D02146304641
:1016A400FFF742FF23880246B8F80210029800F0C0
:1016B4005CFF0028E9D02846DFF8C4902379DB06D4
:1016C40015D521463046FFF72FFF98F800600346F2
:1016D40022463046CC46B8F8021014950BB0BDE84B
:1016E400F04F60473846DFF89C902F46E6E7019AB2
:1016F400A3785AB9E278A3F14101012908D8013A43
:10170400D2B2394604F020F90020BFE7019AF2E78B
:10171400433B012B05D8023A92B2394604F02EF924
:10172400F2E7059B2BB9019B1BB1E37801998B422E
:101734001AD8394617B902F02DF8E5E701F0CEFFC3
:10174400E2E712F0300F08BFE07803F1010304BFB1
:101754003F18BFB263E770890744BFB263E7039BD6
:10176400D8880744BFB246E789208FE74521002087
:10177400503400203C34002068AA02004034002089
:101784009D250000A12500002DE9F0410646002515
:101794004FF014080779E8B2874201D800241AE010
:1017A40008FB05F0D6F800C00CEB00043CF8000080
:1017B40088421AD132B1802A10D194F90CC0BCF1FC
:1017C400000F12DAB0F57C4F05D32046FFF7AAFECE
:1017D400984200D04BB92046BDE8F081402A04D19C
:1017E40094F80CC01CF0400FECD10135D3E7000095
:1017F400064B1B783BB1064B1A78824203D1587BC7
:1018040000F0010070470020704700BF4521002010
:101814004034002070B50A4B0A491D780023DAB21F
:10182400AA4202D3FF22104670BD1C016618645CF4
:10183400844202D1747BE407F5D40133EFE700BF9F
:1018440045210020403400202DE9F0410D46164684
:101854001F46FFF7DFFFFF280AD0074C3B4604EB87
:10186400001032462946BDE8F0418068FFF78CBF7E
:101874000020BDE8F08100BF4034002008B51346C5
:101884000022FFF7E1FF003018BF012008BD08B5B2
:1018940013464022FFF7D8FF003018BF012008BDCF
:1018A40008B513468022FFF7CFFF003018BF012090
:1018B40008BD0000054B1B7833B1054B1B788342F0
:1018C40014BFFF2000207047FF20704745210020EF
:1018D4004034002070B51D46FFF7ECFF044C2B4646
:1018E40004EB00108068BDE87040FFF74DBF00BFF7
:1018F40040340020F8B507460C4615461E46FFF74F
:10190400A3FF78B1094B187858B1094B1878B8423D
:101914000AD033462A462146FFF7DCFF003018BFC1
:101924000120F8BDFF20FCE70020FAE74521002054
:101934004034002013464022FFF7DCBF0022FFF7AB
:10194400F9BF0000014B0001185C704740340020CF
:1019540070B50D46FFF75EFFFF2818D00E4B03EB62
:10196400001082689AB10023142618461179DCB25B
:10197400A14200D870BD146806FB0344247B45B122
:1019840014F0400F1CBF0130C0B20133EFE7002058
:10199400F0E714F0800FF5E7403400202DE9F04122
:1019A4000F469046FFF736FFFF280BD0104B4FF041
:1019B400140C03EB001000231C4685682979DAB265
:1019C400914202D80020BDE8F08128680CFB030096
:1019D400067BB8F1000F08D016F0400F03D0BC42CC
:1019E400F1D00134E4B20133E9E716F0800FF5E7F2
:1019F400403400202DE9F04F89B0074614F0A9FBCC
:101A0400002482464FF00C0B3B4B1B780293029B45
:101A14009C422ED2FF2F05D03846FFF7FBFEFF284D
:101A2400044626D0FF2F354E4FEA041360D1F21836
:101A3400127B52455CD00134E4B2E8E714221B68FF
:101A440002FB05352B89B3F5967F01D907F0FCFA23
:101A54004FF000092A891FFA89F39A420CD808F139
:101A64000108B3685FFA88F51A79AA42E6D8FF2F0D
:101A7400E1D009B0BDE8F08F1FFA89F10BFB01F149
:101A840068684218137913F0100F29D196F800C032
:101A940013F0400F8DF814C0B5F800C00393ADF8EF
:101AA40016C00CBF4FF0400C4FF0800C8DF818C0DE
:101AB400415A2846ADF81A101146FFF735FD039B2D
:101AC400ADF81C005B07D1780DD50229926800D9C6
:101AD400126801230093002305A81946FFF758FD57
:101AE40009F10109B6E7022994BF08329268F0E7C8
:101AF4004FF000081E44B4E7452100204034002084
:101B04000021FFF777BF704710B5047B14EA010387
:101B140010D0002201238B4203D3036953F822001F
:101B240010BD1C4218BF01324FEA430318BFD2B2A2
:101B3400DBB2F0E71846F3E7F8B516461F469DF802
:101B44001820BDF81C300546FFF77EFE78B104214D
:101B5400FFF7DAFF044650B1284601F0C1FE3A46C9
:101B640031462846A047BDE8F84001F0A8BEF8BDBC
:101B74002DE9F74F0C9D1F4681468A469DF834B0E7
:101B8400BDF83830144612B30DB307B392F804808D
:101B94002A78618812F0080F14BF40228022404640
:101BA400FFF752FE98B10821FFF7AEFF064670B169
:101BB400404601F095FECDE9005B3B462246514686
:101BC4004846B04703B0BDE8F04F01F078BE03B01B
:101BD400BDE8F08FF8B5BDF8185017461A462B46E5
:101BE4000446FFF731FEE0B175B90221FFF78CFF1F
:101BF4000546B0B1204601F073FE39462046A84799
:101C0400BDE8F84001F05BBE1021FFF77DFF0646FA
:101C140038B1204601F064FE2A4639462046B047D2
:101C2400EEE7F8BD73B5BDF8184016461A462346CC
:101C34000546FFF709FEB8B1C4B92021FFF764FFD8
:101C4400044670B1284601F04BFE099B9DF81C2008
:101C5400009331469DF820302846A047044601F001
:101C64002EFE204602B070BD8624FAE70024F8E771
:101C74002DE9F04186680446007801F031FE002524
:101C840014273279EBB29A4203D8BDE8F04101F04F
:101C940016BE7B433268207802EB0308D15A00F069
:101CA4006AFC01214046FFF72FFF034608B1207864
:101CB40098470135E5E7000070B50024074D084E4C
:101CC4002B78E0B2834200D870BD06EB0010437B52
:101CD400DB0701D5FFF7CCFF0134F1E745210020F4
:101CE400403400202DE9F041194B05461B780C4681
:101CF4005BB3184803780646AB4226D1437B03F016
:101D0400010239B143F0010343734AB1012420466F
:101D1400BDE8F0817173002AF8D04FF014080DE08B
:101D2400FFF7A6FFF3E708FB04F41B6828461A191B
:101D3400127B195BD209FEF7E9FB3C46B368671CCA
:101D44001A79E4B2A242EED8E0E70024DFE700BF4C
:101D54004521002040340020002070472DE9F74F32
:101D64004C7D0193BDF830A09DF838B070B394B3A6
:101D7400012C18BF0424002635469DF83C70DFF87A
:101D84008480BFB236F80800904218D108EB0600F0
:101D940090F803E01EEA040F11D090F80290D945A0
:101DA4000DD31EF0100F91F80FC016D0BCF1000F28
:101DB40005D0FFF7D1FFB1F810C0844510D0043628
:101DC400182EDFD1012003B0BDE8F08F002C14BF22
:101DD40004240824CFE70224CDE7BCF1000FEED1A0
:101DE400AF420CD0AA450AD9019B0D9803F805907F
:101DF40000880D9B013001351880ADB2DFE700206B
:101E0400E1E700BF0CAB02002DE9F04F1D4689B09D
:101E1400BDF848409DF85030934601932A46234626
:101E240007460E46FFF710FD8DF81470ADF81660E6
:101E34008DF81850ADF81AB0ADF81C40814618B9A9
:101E4400012009B0BDE8F08F05A9FFF776FB002853
:101E5400F6D000259DF84C302E469BB22F462C46DA
:101E6400029336E00C231FFA85F803FB08F8B9F84F
:101E74000020D9F80430B2F57C4F03EB080A1AD3DA
:101E840033F8080058452ED3029BA3422DD901F004
:101E9400CDFC9AF8020001F0B5FC019B43B19AF81D
:101EA400043013F0010F0CBF0520072001F0AAFC39
:101EB4000134A4B219E033F808205146ADF81A20D1
:101EC400484605AA0393FFF74FFB039B0028D7D18D
:101ED4000135B9F80820ABB29A42C3D83C44A31BDD
:101EE40058425841ADE70137BFB20136B6B2EFE709
:101EF4002DE9F04F8FB098469DF87030BDF8609092
:101F0400069300238DF82C00ADF82E10ADF8322086
:101F1400009305460E46174608A91A460BA80893CF
:101F2400199C9DF868B09DF86CA08DF83080ADF8D0
:101F34003490FFF72DFB089B6BB9CDE900672B4666
:101F44005A4A5B49042002F00DF94FF0860A5046C4
:101F54000FB0BDE8F08FBAF1000F15D19A785A4549
:101F640007D0524A5349042002F0FCF84FF08D0A7E
:101F7400EDE71A79D10707D44C4A4F49042002F0FF
:101F8400F1F84FF0880AE2E71A79520732D59A68D5
:101F94005168926809910A92987803F06BFD089B46
:101FA400059093F803A0BAF1020F14D803465246E1
:101FB400214609A803F003FD059B079052462146DC
:101FC4000AA803F0FCFC079B012B01D0013011D1BE
:101FD4004FF0870ABBE7059B52462146099803F058
:101FE400EEFC0128F4D0059B524621460A9803F0E2
:101FF400E6FCEBE7069B002B51D1089B0394DB78AE
:102004003A46CDE901B3CDF800904346314628461F
:1020140000F017FB8246002899D1089B0394DB78D3
:102024003A46CDE901B3CDF80090434631462846FF
:10203400FFF7F8FD8246002889D101230093069B0F
:10204400224619460BA8FFF7A3FA824600287FF41C
:102054007EAF089B324629462046FFF754FD43468F
:102064003A4631462846CDE901B4CDF8009000F057
:1020740004FB089B0394DB783A46CDE901B331466F
:1020840043462846CDF8009000F0DAFACDF80090E7
:1020940043463A4631462846FFF79CFD57E7074931
:1020A400042002F05FF84FF0000A50E756AB02003C
:1020B40062AB02008AAB02009EAB0200B2AB02002C
:1020C4002DE9F04786B0BDF838400F9D9DF840607B
:1020D4000094CDE901560746884691469A4600F099
:1020E40042FA98B102280ED84FF00003049308BFB7
:1020F4000123CDE90045CDE902634A4653464146F2
:102104003846FFF7F5FE06B0BDE8F0870120FAE790
:1021140030B50024012587B0CDE903549DF82C5037
:1021240002950A9DCDE90045FFF7E2FE07B030BDF8
:1021340030B50024012587B0CDE903549DF828501B
:102144000094CDE901354023FFF7D2FE07B030BD3E
:1021540010B54FF0010C002486B0CDE9034C9DF876
:1021640028400294099C0194BDF820400094FFF794
:10217400BFFE06B010BD000030B5002487B08DF856
:102184001030BDF828308DF80C00ADF80E10ADF805
:102194001220ADF814300094BDF830300B9A02A927
:1021A40003A802940D9DFFF7F3F9044630B915B165
:1021B400029B9B782B70204607B030BD8928FAD14A
:1021C4000249042001F0CEFFF5E700BF2CAB02006A
:1021D4001FB5089C03949DF81C400294069C01942E
:1021E40000240094FFF7C8FF04B010BD2DE9F04FA0
:1021F4004FF0000B89B0FFF771F95FFA8BF6B0422C
:1022040002D809B0BDE8F08F4FF0000A594C3601EE
:10221400A25D5949042001F0A5FF5849042001F0AA
:10222400A1FF0594059B5FFA8AF433449B681A79ED
:10223400A24202D80BF1010BDDE714224FF0000893
:102244001B6802FB043422891FFA88F39A4202D8DD
:102254000AF1010AE6E70C271FFA88F35F43636873
:10226400DD19049306F0F0FE2B79454913F0400F75
:10227400049B2288DB5B4FF004000093414B08BFB2
:102284000B46414901F08AFF29462046FFF74CF9E5
:10229400814600283BD13D49042001F07FFF297984
:1022A400DFF80CC111F0010F394808BF604611F086
:1022B400020FAA78EB7830D1DFF8F8C011F0100FD4
:1022C400344908BF6146CDE900013349042001F0D7
:1022D40065FF059B2188985D049BDA5B2B790027B9
:1022E40013F0400F4FF00203CDE9023707AF14BFDC
:1022F40080234023CDE90097FFF73EFF86280ED1C7
:102304002649042001F02EFF08F101089BE702464C
:102314002349042001F042FFC1E72249D3E7A8780A
:10232400FFF7F2F8D0B1384601F0A8FA013082B2D2
:1023340001233946042001F069FE4946208803F050
:1023440065F84FF6FF739842DED0174B174903EB3D
:10235400C0004268042001F005FFD5E7A878FFF724
:10236400D9F820B1384601F08EFA0230DFE7EA7876
:10237400DEE700BF40340020F7AB020003AC0200EC
:10238400D4AB0200CFAB020043AC020055AC020058
:10239400DCAB0200EFAB02005AAC020072AC0200EC
:1023A4009C110300E7AB0200E8110300482D030071
:1023B400D9AB0200DFAB02002DE9F04786B0BDF8CF
:1023C4003C700446042F0E4615469946BDF838A0C5
:1023D40064D9CDE9013A00920B4602463149042002
:1023E40001F0C0FE0DF11303039302230DF1140851
:1023F40002932046CDE900A84B462A463146FFF712
:10240400BBFE044600283CD19DF81300A0F1410313
:10241400012B29D8404601F031FA0130C4B2E31C43
:10242400BB423BDA284601F001FADFF8889000202D
:1024340001F0E8F99DF8130001F0E4F9B9F800306F
:102444001A19512A0BDC1848A7B23A4618444146D7
:1024540001F044F9B9F800301F44A9F80070009461
:102464002B463246114916E0A0F14303012B04D850
:10247400404601F008FA0230D0E7FFF705F80446B9
:10248400CDE7284601F0D2F9204601F0BBF92B46EE
:10249400324607490094042001F064FE06B0BDE80A
:1024A400F08700BF7EAC02009C340020D5AC020053
:1024B400B2AC02008C340020C37B10B504460BB1CF
:1024C400832010BDC37C1BB1012B10D08120F8E701
:1024D400017D82898B1C9A420CD3806801F0C8F973
:1024E4000AF082FE40B9E37B002BE9D1EEE70AF063
:1024F40093FEF7E78020E4E70020E2E738B5C37BEA
:102504000446002B437D14BF8325C325012B13D11F
:102514000368028A59885879FFF7C2F960B12368C1
:102524005B88032B01D0062B02D1E37B13B18325F7
:10253400284638BD8125FBE7637D002BF8D123684D
:10254400228A59885879FFF7A2F90028F0D0236825
:102554005B88002BE9D0032BEAD12046BDE8384044
:10256400FFF7AABF70470120704701207047012080
:102574007047B520704770470020704700207047AF
:1025840000207047002070470020704700207047EB
:1025940000207047002070470120704701207047D9
:1025A400B520704700207047002070470020704716
:1025B400002070477047B52070470020704770476F
:1025C40000207047842070477047704770477047F9
:1025D40070477047704701207047000070B51E4671
:1025E4000C4615460B490C4A0346002808BF0A4608
:1025F4000A49012001F0B6FD32460949012001F0E3
:10260400B1FD2B462246BDE870400649012001F089
:10261400A9BD00BFFFAC020018A802000CAD020067
:1026240032AD020048AD020000207047034B1B6826
:102634001878012808BF0220704700BFDC21002061
:10264400704700207047002070470020704700202A
:10265400704700207047002070470020704700201A
:102664007047002070477047B520704700207047BE
:1026740000207047704700207047704770477047CC
:10268400704700207047B520704770477047704707
:1026940000207047704702220621012003F036BB58
:1026A40042220621012003F031BB412206210120F0
:1026B40003F02CBB01220621104603F027BB402265
:1026C4000621012003F022BB00220621012003F091
:1026D4001DBB40220321012003F018BB012203216A
:1026E400104603F013BB00220321012003F00EBBAC
:1026F40002220321012003F009BB01220021092049
:1027040003F004BB02292DE9F84F0546894604D895
:102714004FF0000B5846BDE8F88F1BB10429F7D9D8
:1027240042F004020C9C2A70002B50D003276B70DB
:102734001B0AAB7002F0F6FE4FF000089DF828303B
:10274400E85507F1020B464E0137EB550B9A5FFA39
:1027540088F3D05C0028DDD0732861D8A0F14C0345
:10276400DBB2162B04F10407D4F800A039D826FAFA
:1027740003F3DB4313F001033BD162684C2804F1FB
:10278400080794B225D14FF6FF7322469C4214BF2A
:10279400022300230BEB040018448145B8DBDE461A
:1027A4001846002851D19B441FFA8BFB5CB1BAF147
:1027B400000FADD005EB0B002246514600F08EFF12
:1027C400A3441FFA8BFB08F101083C46BEE701272E
:1027D400B0E753281BD1D2B2B2F1FF0318BF0123D3
:1027E400D8E76C2805D1504601F04DF8023084B288
:1027F4000CE0732804D1504601F040F80130F6E7AC
:10280400A0F13004E3B2092B03D8A4B200231A4682
:10281400C0E7A0F14103062B3FF67AAF3738E6E76D
:10282400752808D076280CD078280CD077287FF427
:102834006FAF042300E00123271D22680024A24671
:10284400A8E70223F8E70323F6E70EF1010C0138A9
:1028540005F80E20C0B2120A1FFA8CFEA1E700BFD1
:102864008100400010B5044C2060044801800449F4
:102874000A60044A136010BD502100205421002036
:102884004C2100204821002008B430B586B009ABA3
:1028940053F8045B0C460D4905930988CDE90153AF
:1028A400009202460A4800230068FFF72BFF4FF40A
:1028B4008252084B1B681880074B1B685C80DA80C7
:1028C40006B0BDE8304001B0704700BF542100207D
:1028D400502100204C210020482100202DE9F84FF0
:1028E4000C468F680A6805463B49202007F075F8B6
:1028F4006368ABB93949202007F06FF820200BF04A
:1029040089FBE2681AB13649202007F066F8354998
:10291400202007F077F8BDE8F84F20200BF07ABBB1
:10292400002DEBD0E3681BB12F49202007F055F8A8
:102934003D46DFF8DC80DFF8DC90DFF8DCA0EE1B3E
:1029440015F801BBF6B2BBF1000F04D125492020D4
:1029540007F058F8D2E723691BB14146202007F05D
:102964003CF8BBF1750F27D0BBF1760F26D0BBF135
:10297400770F25D0BBF1730F24D0BBF1720F23D096
:10298400BBF1710F22D0BBF1620F21D0BBF16E0FEE
:1029940020D01649164BBBF12A0F18BF1946202028
:1029A40007F01BF82369002BC9D053F826201149DE
:1029B400202007F012F8C2E74946F0E75146EEE757
:1029C4000D49ECE70D49EAE70D49E8E70D49E6E76B
:1029D4000D49E4E70D49E2E7482C0300F5C602007F
:1029E4005B020300F70103004B02030048020300EB
:1029F40045020300550203000F0203001B020300FB
:102A040025020300300203003B020300F4C6020067
:102A1400FE0C030004020300F8010300F0B50026D5
:102A2400204A92F87B30184452FA80F090F865C03E
:102A340090F8665030461C4BA5EB0C051F78EDB2A0
:102A4400F4B2A54225D90CEB060313445B7811B10B
:102A54000CB92D2B17D0782B1FD0582B05D108B1CA
:102A640037240AE0013C012C14D9602B17D8402BE1
:102A7400F6D83A2B34BF302400241B1BDBB29F4210
:102A840003D900FB07300136DAE70523002082F87A
:102A94007930F0BD10270020F5E70028E2D0572454
:102AA400EBE700BF56210020D21A00200023FF21AB
:102AB400084A137082F8783082F8653082F87730EB
:102AC40082F8793082F87A1082F87B30024A1360F7
:102AD400704700BF5621002058340020034B93F860
:102AE400770093F87B30C01AC0B27047562100209B
:102AF4000021FFF793BF000010B50A4B93F87B2029
:102B0400024453FA82F292F8652013445C78A4F1EB
:102B14002D0359425941FFF781FF2D2C08BF404234
:102B240010BD00BF5621002030B50C4A92F87B300E
:102B34000344C043DBB2C00F39B1D51895F86640E1
:102B440095F86550641B241A0C7042FA83F393F8C9
:102B540065301844024B184430BD00BF5621002094
:102B640057210020F7B515460E460DF107011C4606
:102B7400FFF7DAFF9DF807300746AB4288BF8DF8B0
:102B840007501CB19DF807402C1BE4B22246304686
:102B9400002100F0FFFD30199DF80720394600F0B0
:102BA4009DFD9DF8070003B0F0BD38B50C46012328
:102BB4000822FFF7D7FF04F10803621E043413F858
:102BC400011D12F8015FA3421D701170F7D138BDC9
:102BD40038B5054601460120FFF780FED5E90143DB
:102BE4006CB91C46084D236863B12946202006F0C1
:102BF400F4FE21460020FFF771FE1434F3E71B783E
:102C04006E2BEFD038BD00BFFE0C030008B504499D
:102C1400202006F0E2FEBDE8084020200BF0FAB9BF
:102C2400B801030038B5FFF7F1FF0024054D611921
:102C34001434631953F8143C03B938BD0020FFF76A
:102C44004DFEF4E76CAD02002DE9F84F1F4B204D0B
:102C540053F820201F49202006F0BFFE2B681BB923
:102C6400BDE8F84FFFF7DEBF1B4FFFF7CFFF00268D
:102C7400B946DFF86CA097F87B30F4B2013B9C4274
:102C840004DB2868BDE8F84FFFF7A2BF47FA86F3D4
:102C940093F8658000234C44C84494F8662094F863
:102CA400651003F1010B521ADBB2D2B2934205D381
:102CB4000A49202006F091FE0136DCE743445A78A5
:102CC4005146202006F089FE5B46E6E7D41A002030
:102CD40058340020B301030056210020FF0C0300E8
:102CE400AC1203002DE9F74F824C94F87730002B97
:102CF40000F0A280804B671C1B7813F0010F1FD0DB
:102D040000257E4E14E0631993F8662093F865302D
:102D14002020D21A44FA85F393F86510D2B23944CC
:102D24000BF073F93146202006F057FE0135EDB261
:102D340094F87730AB42E6D87149202006F04DFE76
:102D4400002694F87730DFF8C4E101936D4B4FF01F
:102D54000008714645461EF8012B91F801C007EBA7
:102D6400020AACEB020C5FFA8CFC1868002853D002
:102D74000138D14619E02AB9002D4BD04FF0010893
:102D84001433F2E719F8011BA1F1410BBBF1190F40
:102D940098BF2031A2F1410B98BFC9B2BBF1190F02
:102DA4009CBF2032D2B28A42EAD1A9EB0A01614522
:102DB40010F8012FDFD1002ADED11D46524B013617
:102DC4001D6094F87B30F6B2013384F87B30D5E98A
:102DD4000123002A36D01B786E2B32D03F2B24D00F
:102DE4004FF000094FF0070A4F464FF0040B5FFA0B
:102DF40089F0811994F877C0AA68C9B28C45D35D6B
:102E040028D893B117447B782A2B1CBF032384F85A
:102E140079300AE01D46B3E7B8F1000F01D1002D67
:102E2400CCD10223002584F8793094F87900002865
:102E34005CD1686800F030F903B0BDE8F04FFFF7EB
:102E440035BE1346019AB24281D803221D4684F846
:102E54007920EAE7732B08D8712B0AD2002B43D0D0
:102E6400622B30D084F879A016E0A3F17502022A0F
:102E7400F8D8752B1ED0762B1FD0732B20D0722B35
:102E840047F6FF7818BF4FF0FF380121FFF7C6FD62
:102E9400404501D984F879B0AB6809F101093B4494
:102EA4005B782A2B94F879301CBF0137FFB2002BD2
:102EB4009DD0BAE74FF0FF08E7E74FF6FF78E4E765
:102EC4004FF07F08E1E794F87B30184454FA80F01F
:102ED40090F8653023445B78222BDDD07B2BDBD04C
:102EE400052384F87930D7E70323FAE7FFF7ACFE2C
:102EF400A2E700BF56210020D2210020FF0C0300CE
:102F0400F50103006CAD020058340020BB21002001
:102F14002DE9F34106460D464FF000085C4C5D4F29
:102F240066B90DF1070128460BF068F878B1262838
:102F340000F0A980012384F879304BE0002D00F0E3
:102F4400A28016F8013B013D8DF80730EDB23A78C6
:102F54009DF807300D2A3B7001D10A2BE0D00D2BD0
:102F64000CD0A3F10A025142514122788846042A26
:102F7400D6D8DFE802F0051D263C31000121F4E734
:102F840021B1FFF7AFFE4FF00108C9E7202B63D052
:102F9400222B07D10223237094F87820642A5DD170
:102FA4000623C8E77B2B01D10323F4E70123F2E7CF
:102FB40009B9202BF0D194F87730112B3FD103239A
:102FC400B9E7222BF7D00029E6D005234FF00108FA
:102FD40084F8793004232370B8F1000FA0D094F85A
:102FE400790008B1FFF730FEFFF760FD98E77D2B0D
:102FF40094F87A0003D1FF28DDD005239BE7602BEA
:1030040013D8402B13D8392B8CBF002230229A1AA4
:10301400D2B20F2A10D8FF280BD0FF2302EB0012E4
:103024008DF8072084F87A30B6E75722EFE7372285
:10303400EDE784F87A2073E7202BDED170E70133C3
:10304400DBB294F8782084F87730234483F8652041
:1030540000232370002994D1884661E72378012B4B
:1030640009D19DF80730A3F1410119299CBF2033F0
:10307400DBB28DF807309DF80710A31801325970A0
:1030840084F878204CE7404602B0BDE8F08100BFE8
:1030940056210020D321002010B5054B0446187892
:1030A40000F006FCA047BDE8104000F008BC00BFDB
:1030B400E02100207FB501A8FDF702FE01AA034923
:1030C400022001F04FF807B05DF804FB4A05030045
:1030D4001822FF232DE9F04F8DB00DEB02000021E3
:1030E4008DF80A3027F050F90DF10B014FF0FF3045
:1030F400FFF71AFDFFF7DEFF00229D49022001F0D1
:1031040031F804A8FEF79AF806A90DF10A00FEF7B3
:103114009BF80220974901F041F8022001F00EF8D3
:1031240010B104A800F090FF9DF922309DF82320EF
:103134009149022001F016F819F088FD831EDBB2D4
:10314400FC2B05462AD88D49022001F00BF80124F6
:103154008B4E8C4FDFF8988222463146022001F0D4
:103164001DF803A9E0B219F023FD9128024600F0EE
:103174009580932800F09280002840F094809DF977
:103184000C109DF80E3000919DF80D207E49022010
:1031940000F0E8FF0134E3B2AB42DDD3BDF82040D8
:1031A400FDF786FE224603467849022000F0F6FF2A
:1031B4000220774900F0F2FF022000F0BFFF10B1B7
:1031C40006A800F041FF7349022000F0CBFF1EF077
:1031D4006BFE04461EF062FE224603466E49022040
:1031E40000F0C0FFFEF752F86C49022000F0D6FF51
:1031F4009DF80A20FF2A5BD06949022000F0CEFF27
:103204006449022000F0AEFFFEF72AF8654A03463F
:103214006549022000F0A6FF19F092FC63490246BA
:10322400022000F0BBFFFEF729F80446FEF72CF855
:10323400224603465E49022000F094FFFEF74EF951
:103244005C490246022000F08DFF0025DFF8A481CE
:10325400FEF744F9ECB2A0422FD8012256490220CD
:1032640000F080FF554C002000F022FB544B00225C
:103274005449022000F076FF236853B11A7852496A
:10328400022000F06FFF236850495A78022000F0B2
:1032940069FF00F014FB0DB0BDE8F08F3946022041
:1032A40000F060FF76E74146022000F05BFF71E723
:1032B4004749022000F072FFA2E7464B204603EB89
:1032C4000416D6F80890FEF73DFB82462046FEF72A
:1032D4000BF9414F002814BFC346BB462046FEF7F6
:1032E40031FB02F04DF8002814BF404638465B46D7
:1032F400009052463949022000F050FFB17973889A
:10330400327B0191B18802200091354900F02AFFF7
:103314000026DFF8E4B099F80430F4B2A34201D8EF
:10332400013595E714235C43D9F800702D4807EB69
:10333400040A9AF90C202C493B5B11EA220138BF9C
:10334400014602200A46594600F028FF022000F0F8
:10335400F5FE38B150463C5BFEF7E4F801462046E2
:1033640002F072F82149022000F0FCFE0136D2E797
:10337400F902030014030300400303001B030300CA
:103384003103030055030300380303006B030300F8
:1033940089030300A6A7020092030300B3030300FA
:1033A400BAA70200C6030300CF030300DD03030032
:1033B400F10303000004030074040300DC21002073
:1033C400800403008E0403009A040300AC04030089
:1033D400BE03030040340020D80203000B040300A2
:1033E4002B040300ED020300E1020300F7010300D4
:1033F40060030300D00203005D04030008B500204D
:10340400FFF776FBBDE8084080B200F015BF08B5B1
:103414000020FFF76DFBBDE8084080B200F020BF3C
:1034240070B50024064D074E1434631953F8142C58
:1034340002B970BD3146022000F094FEF4E700BFEB
:103444006CAD0200482C030005F042BF08B5002013
:10345400FFF74EFB054B10F0FF0F1A7814BF42F034
:10346400010222F001021A7008BD00BFD22100201F
:103474002DE9F84326F06EF9002507460F4EDFF8D4
:103484004880DFF84890EBB256F833400CB9BDE8F9
:10349400F88358F823204946012000F07FFE237862
:1034A4002BB90749012000F05DFE0135EBE76268A6
:1034B4000449D21B012000F055FEF6E7FCA40200EB
:1034C4003B05030044050300981A0020340503005B
:1034D40010B522F0CDFB04460C49012000F05EFE3D
:1034E400022C0DD0032C0DD0012C0DD10849012044
:1034F40000F054FEBDE810400649012000F032BE41
:103504000549F4E70549F2E70549F0E7C504030076
:10351400E2040300F7C60200E8040300F704030012
:10352400070503002DE9F8430025114EDFF850800C
:10353400FDF7D4FFECB2A04201D8BDE8F88327011F
:10354400204616F80790FDF7CFFF0A4B4A4600289D
:1035540018BF43460849012000F020FEF05DFDF746
:10356400E0FE0649012000F0FDFD0135E0E700BF63
:1035740040340020E405030029050300F70103009B
:10358400DA05030008B50020FFF7B2FA094BC0B210
:103594001B681B681978A1F1650359425941FEF76C
:1035A400A1FB28B9BDE808400349012000F0DABDB9
:1035B40008BD00BF583400200F05030049BA89B282
:1035C4004840C0F303114140080380B24840C3B2ED
:1035D40080EA431070470000014B1878704700BF21
:1035E400D4210020014B1870704700BFD421002063
:1035F40016F076B870477047704770477047704749
:103604007047704770477047704770477047002095
:10361400704770477047002070470020704770471C
:103624007047704770477047704770472DE9F047FF
:103634000024204DDFF89C90DFF89CA05FFA84F80A
:10364400404619F00FFBFF2806460CD122461A49C2
:10365400287806F0D7F9287801340AF0DBFC142C1A
:10366400ECD1BDE8F087154B47B213EA270338BF06
:10367400534659F824201249287806F0C3F9002F3C
:10368400E9DA14B1B8F1030F08D10E4B16F0010FAB
:103694000D49287818BF194606F0B4F90A2CDAD176
:1036A4000A4B16F0010F0A49287818BF194606F08C
:1036B400A9F9D0E7D11A0020ED050300F7010300B2
:1036C40015060300B0050300C6050300D805030072
:1036D400E20503005C050300510B03008842F0B5CA
:1036E4004FEA92031AD804460D469BB29E008719EE
:1036F40004370434BC4205F104053AD1C3EB8333E7
:10370400314402EB8303013E304411FA83F39942BE
:1037140020D011F8012B00F8012FF8E7541E2044A3
:1037240021440D4604469BB2A0EB8306043E043CB0
:10373400B442A5F104050ED16FF003045C43C3EB5E
:10374400833302EB830321449BB201342044CB1A1C
:10375400994209D1F0BD2F792771EF78E770AF78DE
:10376400A7706F786770E2E711F8012900F8012D5E
:10377400EEE715F804CC04F804CC15F803CC04F8EF
:1037840003CC15F802CC04F802CC15F801CC04F8EB
:1037940001CCAEE70244904200D1704700F8011B0F
:1037A400F9E710B5013801390AB9104606E010F8F6
:1037B400014F11F8013F9C4201D0E01A10BD013ABB
:1037C40092B2F1E710B50024094B1C70FDF770FBB1
:1037D400084B2146188052220748FFF7DBFF074BAE
:1037E40021461C800C22BDE810400548FFF7D2BFDB
:1037F400352200209A3400209C3400208C34002090
:103804008E34002007490B88512B9FBF064AD054A1
:1038140001339BB29DBF0B8003F1FF339818002046
:10382400704700BF8C3400209C34002038B5054616
:10383400C0B2FFF7E7FF0446280AFFF7E3FF14B11D
:10384400002808BF0024204638BD194491420ADCF0
:103854000144002003B9704711F8012D013B02EB2C
:103864000020DBB2F6E7002070470423FFF7EDBF2A
:1038740008B50223FFF7E9FF80B208BD0078FF28EE
:1038840008BF0020704708B502220021FFF7F0FFAF
:103894004FF6FF73984208BF002008BD024B034A4D
:1038A40000201A60704700BFDC2100205BAA0200E0
:1038B400002814BF702000207047002070470020AB
:1038C40070477047014B1878704700BF40340020A0
:1038D40008B5FDF79FFFFF280CBFFF20002008BD9F
:1038E40008B5FFF7F5FFFF280CBFA320002008BD93
:1038F400002303707047FCF7BABD10B504461822C4
:103904000021FFF747FF2046FEF754FE0020FFF793
:10391400EFF8E0720120FFF7EFF8A0720220FFF742
:10392400E7F82081FFF7DAF8032808D90320FFF726
:10393400DFF8E37A03F01F0343EA4010E07210BD9E
:103944007FB518220021684626F01EFD6846FFF761
:10395400D4FF6846FDF792F9044A0346044902205D
:1039640000F000FC07B05DF804FB00BF682E030004
:10397400A007030010B50020FFF7BAF8041C4FF0AD
:10398400010018BF0124FFF7B3F80849A222002858
:1039940018BF014620461BF0B7F8BDE810400346A7
:1039A400034A0449022000F0DDBB00BF00F8FF0712
:1039B400F4D30200A007030070B50020FFF798F8C5
:1039C40004460120FFF794F805460220FFF790F81B
:1039D400E4B2C2B2201C294618BF01201BF0EFF844
:1039E400BDE870400346024A0249022000F0BABB17
:1039F400EC070300A00703007FB56846FFF77DFFCF
:103A04006846FDF71DF9044A03460449022000F004
:103A1400A9FB07B05DF804FB0FD20200A007030066
:103A240008B50C490020FFF7C0F80A48FEF727FE46
:103A34000220094900F0B2FB022000F07FFB10B124
:103A4400044800F001FBBDE808400449022000F0EE
:103A540089BB00BF2B2200204D070300F7010300A0
:103A640010B51CF023FCBDE810400346024A03498C
:103A7400022000F077BB00BFD5FB0200A0070300C3
:103A840010B50020FFF734F8002104464FF0FF3052
:103A9400FFF74AF80178E0B2A1F1620359425941B3
:103AA400BDE81040FCF7F6BE08B5FEF7ECFDBDE836
:103AB400084002460149012000F054BB0A070300F4
:103AC40008B5FEF76DFDBDE8084002460149012036
:103AD40000F048BB1E07030010B50020FFF708F8EC
:103AE4000121C4B2A1400023FE224FF6FF7021F051
:103AF40079FC2246BDE8104003460249022000F04A
:103B040031BB00BF30070300032307B502A820F828
:103B1400043D1BF0D5FD04490246022000F022FBBF
:103B240003B05DF804FB00BF8407030008B5002060
:103B3400FEF7DEFFC0B228B1BDE80840034901200A
:103B440000F010BB024B187008BD00BF0108030051
:103B5400E021002007B56846FDF770FBFDF7A8F9E2
:103B640008490246012000F019FB684600F06CFA8F
:103B7400FDF7A0F904490246012000F0F3FA03B06E
:103B84005DF804FB5B0703007407030073B50020B2
:103B9400FEF7AEFFC4B20120FEF7AAFFC5B20220B1
:103BA400FEF7AAFF46B2FEF799FF032812D90320B5
:103BB400FEF79EFFC0B2009033462A4621460120FC
:103BC40025F0B8F940B90120084902B0BDE87040B9
:103BD40000F0C8BA0020EEE70090054B054A0649FC
:103BE400012000F0BFFA02B070BD00BFA8070300B7
:103BF400B007030034D30200C407030007B5012053
:103C040025F09AF9034638B90120084A084903B057
:103C14005DF804EB00F0A6BA0090044B054A06498F
:103C2400012000F09FFA03B05DF804FBB007030025
:103C3400D907030090D30200C4070300037837B503
:103C440013F0050F04460CD04388062B14D1826868
:103C5400838852681449127802200092134A00F0B3
:103C640081FA2378012B1DD00220104A104903B099
:103C7400BDE8304000F076BA2BB982880D490220A5
:103C840000F070FAEDE7012BEBD185680A490220B8
:103C940000F084FA284600F0D7F90849022000F021
:103CA40061FADEE703B030BD2C080300C4EC020067
:103CB4007C0803004808030064080300F7010300BC
:103CC400094B02201B681B681B78652B0CBF012263
:103CD4000022064B1A701978054A064B002908BFC2
:103CE4001A46054900F03EBA58340020D01A002084
:103CF400D6CE02009CCE0200AF090300FEF7B4BC8E
:103D040037B50020FEF7F4FE05460120FEF7F0FE6D
:103D1400054B82B21C88054BA9B2009320460123AF
:103D240001F069F803B030BD9E1B0020413C000047
:103D34002DE9F04F002691B0374D0BAC0FCD0FC4D9
:103D44002B6836490220236000F00CFA3446344FC5
:103D5400DFF8DC80DFF8DC90FDF786FAF5B2A842E4
:103D64000AD8FDF781FA224603462E49022000F0C4
:103D7400F9F911B0BDE8F08F07A9284611F03EFF0C
:103D84000246002842D19DF81C30032B84BF042333
:103D94008DF81C309DF81C30002B35D02A46414646
:103DA400022000F0FBF99DF81C3010AA02EB8303FB
:103DB40053F8142C4946022000F0F0F99DF8203005
:103DC400BDF81E2028469DF829A09DF81DB0059336
:103DD400049211F00BFF049A059B02900192009348
:103DE40002205B4652461049013400F0D7F9022004
:103DF400E4B200F0A3F918B10DF1210000F024F9A8
:103E04000A49022000F0AEF90136A5E7394602203E
:103E140000F0A8F9F8E700BF180803008E080300B3
:103E2400DC080300FC080300BB080300F7010300DF
:103E340033030300482C030012F0BCB808B500207B
:103E4400FEF756FEBDE80840C0B2FDF76BB80000AF
:103E5400084B1B681B685B78652B02D1002001F0BE
:103E640077BB6E2B01D10120F9E7662B01D102202B
:103E7400F5E7704758340020054B1B681B685B78D6
:103E8400A3F1660253425341024A1370704700BFC4
:103E940058340020C61B002010B5002086B0FEF761
:103EA40027FE044669460120FEF77FFE0123102207
:103EB40002A90220FEF756FEE1B202AB6A460020D8
:103EC40011F0DDFD0446022000F038F918B1214656
:103ED4000448FCF7C1FC0449022000F043F906B091
:103EE40010BD00BFA2090300F701030010B58CB098
:103EF4000023122207A90220FEF734FE03AA01467A
:103F040007A8FDF713FA044688B1BD2802D1144965
:103F1400022002E0022803D1124900F023F904E050
:103F240002461149022000F01DF90CB010BD01A990
:103F34000120FEF73AFE2046FEF7DAFD03ABC1B2DC
:103F440001AA204611F09BFD0446022000F0F6F879
:103F540018B121460548FCF77FFC0549D8E700BFA6
:103F6400250903004809030083090300A20903008B
:103F7400F70103007FB50020FEF7BAFD04460220D6
:103F8400FEF7B6FDC6B23046FFF7AAFCE4B205461A
:103F9400E8B901208DF80000FEF7AAFDADF8020093
:103FA40003208DF80160FEF7A3FD0DF105018DF8E6
:103FB40004000420FEF7F9FD12F0CBF869468DF8F1
:103FC4000D00204611F080FE0546FFF778FC2B46D5
:103FD40022460349022000F0C5F804B070BD00BFBA
:103FE40013090300F8B506460C4615461F4600F0B3
:103FF400A5F818B1013C2544AC4200D1F8BD14F831
:10400400012F3946304600F0C9F8F5E730B4044DC5
:10401400044C002B14BF2B46234630BCFFF7E2BFF1
:10402400D70903002813030070B5054608460C465B
:10403400FFF724FC611C82B2024B2846BDE87040A5
:10404400FFF7D0BFAC120300024600B50C49C37998
:104054000888117889B00691517805919178049176
:10406400D17803911179029151790191927905499D
:1040740000923E2200F092F809B05DF804FB00BF04
:10408400E2210020DB0903002DE9F04705468846BC
:10409400914600240E4EDFF848A00E4FAC4201D1E9
:1040A400BDE8F08708EBC401308853460822FFF7C7
:1040B40099FF01343088B9F1000F07D1064AA542AF
:1040C40008BF3A46054900F069F8E7E73A46F9E7D8
:1040D400E2210020F5010300F7010300472C03004F
:1040E400D7090300014600220220FFF7CDBF0000DC
:1040F4002DE9F0410E4C0646208800F01FF8A8B1C7
:1041040000250C4FDFF83080F3070AD518B9414673
:10411400208800F043F820882A46394600F03EF80B
:10412400002001351B2D4FEA5606EDD1BDE8F08184
:10413400E2210020001A03003CA702004FF6FF739F
:10414400984208D0030A08D1054B1B78034214BFD8
:10415400012000207047012070470020704700BFF5
:10416400A01B00200EB417B505AA52F8041B044680
:104174000192FFF7E3FF40B1202005F056FC05490A
:10418400202005F02AFC044B1C8003B0BDE810403D
:1041940003B07047F5010300E22100200EB417B507
:1041A40005AA52F8041B04460192FFF7C7FF20B189
:1041B400202005F03AFC034B1C8003B0BDE81040FE
:1041C40003B07047E2210020F7B500240E4F0F4ED4
:1041D4000F4D0120A04080B257F82420FFF7AEFF16
:1041E400002814BF30462846134600902246094949
:1041F400202005F007FC0134202009F00BFF032CDC
:10420400E7D103B0F0BD00BFF0090300000A0300CA
:10421400040A0300070A03000122FF210148FFF7F3
:10422400B9BA00BFA01B0020012200210148FFF7FA
:10423400B1BA00BFA01B00200122430100F0070017
:1042440002FA00F003F47F4303449BB21A0A01BF4D
:1042540002490A7813430B70704700BFA01B00206B
:104264000122430100F0070002FA00F003F47F4347
:1042740003449BB21A0A01BF02490A7822EA0303E3
:104284000B707047A01B002013B5036804465879CF
:1042940001F076F888B923685A88032A0DD0E17CA6
:1042A4005B790120CDE900210849094AFFF75AFF4B
:1042B4000121204601F009FA05E02046FEF71EF927
:1042C40001460028F5D1012002B010BD2B0A0300DD
:1042D4009CCE02002DE9F04F427D0368002A14BFF2
:1042E400802240228BB0054690F813B086688789F7
:1042F40090F814905879B3F80280059201F040F8D0
:1043040098B9BBF1050F04D82D2323FA0BF3DC076E
:104314000BD4B8F1030F08D0A4490120FFF722FF02
:104324000121284601F0D1F98FE1EB7B1BB12A8AE8
:10433400002A00F06B8200219D4A1180697D92461B
:10434400002914BF102018200BB140F00400FFF71F
:1043540059FAEB7B13B1288AFFF768FAA87C1FFA95
:1043640089F4FFF74FFABBF1160F00F24982DFE838
:104374001BF01700740161004E00A8016100660182
:10438400B0017001B801C001C8012D01DE0147026E
:1043940047024702F2011B02F20131022D01DE0144
:1043A40004204346834A8449FFF7DCFE0120FFF7DB
:1043B40029FA631CBB4202DB01F03AF945E13A46B3
:1043C40021463046FFF754FA81462B684A4658790D
:1043D400BAF800304146C3F152039BB201932B8AD1
:1043E4000093059BFDF73EF870B92B684A4658794F
:1043F400BAF800304146C3F152039BB201932B8AB1
:104404000093059BFDF7D8FFA21C94B2D1E70420CA
:10441400FFF7F8F900230693A31CBB4225DB069B98
:10442400002BC9D1EB7B2C7D002B0CBF0222042274
:104434005F4B1A800420FFF7E5F900239A460693A0
:1044440004F103094F4560DCBBF1050F00F0FD806A
:10445400BAF1000FB0D1069B002B40F0A28057495F
:104464000420FFF77FFE80215BE73A462146304671
:10447400FFF7FEF9331993F802A007905046FDF7B1
:104484003DF8002839D0E01C3044FFF7F7F901303B
:104494005FFA80F95046FDF731F820B109EB0403C7
:1044A400FB1A032B2ED42B68079A5879E31C334448
:1044B40001932B8ACDF808A000934146059BFDF794
:1044C40047FE8246A0B1069B50460133DBB20693F9
:1044D400FFF798F90798FFF7A9F9424638490420ED
:1044E400079BFFF73FFE524636490420FFF73AFE8A
:1044F40009F10302224494B28EE75046FCF7C4FF4C
:104504008146C7E74FF0800ADDE73A462146304648
:10451400FFF7AEF933199B78079018460893FCF718
:10452400EDFFB14440B34846FFF7A8F90130C3B2E8
:1045340009932B68079A5879089B4146CDE9019362
:104544002B8A0093059BFDF7BBFD8146079B4246E2
:104554001B490420FFF722FEB9F1000F11D1069B7D
:1045640019490133DBB204200693FFF7FBFD099AD6
:104574000332224494B263E70898FCF785FF09905C
:10458400D7E70AF1010348465FFA83FAFFF73AF9DD
:104594000798FFF74BF94A460A490420FFF7E2FD62
:1045A400E5E75046FFF72EF906E700BFD8020300FF
:1045B4008C3400205A0A0300A30A0300860A03006D
:1045C400640A03007E0A0300FCAC0200904A914B8B
:1045D4000420BBF1150F18BF13468F498F4ACDF83D
:1045E4000080FFF7BFFDBBF10C0F14BF16200D2098
:1045F400FFF708F93A4621463046FFF739F94E44A9
:10460400BBF1150F0746B47802D1132C28BF13242D
:104614000020BAF80060FFF7F5F82B68ABF115013C
:1046240058794B424B41CDE901432B8A3A460093DA
:104634004146059BFDF7E8FB794B9855BCE62846B7
:10464400FDF79CFF002800F0DB8001200BB0BDE8E3
:10465400F08F2846FEF703F8F4E7B8F10A0F06EBEB
:10466400090A24D1DFF8BCB19BF80030FBB1EB7B25
:10467400EBB9A7EB0909B9F1080F18D13A4621465D
:104684003046FFF7F5F890B99AF80290B9F1000FA7
:104694000DD19AF80330E22B09D1211D3A4689B293
:1046A4003046FFF7E2F800F0F7FD8BF800903A1B74
:1046B40092B251464046FCF7E2FE0028C5D10021E3
:1046C4002FE63A1B92B206EB09014046FDF7E0FFE4
:1046D400F3E73A1B92B206EB09014046FDF750FF9F
:1046E400EBE73A1B92B206EB09014046FDF7B9FF2E
:1046F400E3E73A1B92B206EB09014046FCF7C1FE20
:10470400DBE72B68013458792B8AA4B216F80970B8
:10471400345D0193059B3A46009341462346FDF7D9
:104724000BFA224639464046FDF72CFF8DE7621C02
:1047340090B216F80910ABF11602534253413F1AD6
:104744000031009306EB0002BBB218BF01214046C2
:10475400FDF71AFFB1E716F80970BBF1110F4E44CB
:1047640096F801901BD11220FFF74CF80020BAF8FC
:1047740000402B4EC4F1510292B2631C00923344A8
:10478400CDE90279CDF804A042462946FDF7E6FAC0
:10479400BAF8003030550133AAF800300CE6142082
:1047A400FFF730F80120E2E716F809200021003273
:1047B40018BF01220134A4B23F1B3319BFB2C8B2DF
:1047C400874201F10101FAD8298A00974046FDF792
:1047D400DFFE72E716F809200021003218BF01221B
:1047E4000134A4B233193C1BA4B2C8B2844201F10F
:1047F4000101FAD8298A00944046FDF7C7FE5CE718
:10480400EB7B002B0CBF822184218AE5842188E57F
:10481400F7010300550A0300A10A0300970A0300E5
:104824009C340020E421002082B2074B4AB1000CE2
:104834001A8008BF4FF6CE22044B14BF18801A808A
:1048440070474BF6EF62F2E7A21B0020A41B002086
:10485400094B1888020448BF80F0620042001A80A5
:10486400064A1388190444BF83F4805383F00B036E
:104874005900118058407047A21B0020A41B00203F
:104884000022034B1870034B1970034B1A707047C6
:10489400E6210020E5210020E72100202DE9F04F4A
:1048A400234E85B0337807468846002B3DD04FF61B
:1048B400FB73204D98422C7803D952211E4803F0F3
:1048C400A1FE1E4B4FF0000B9A4632785FFA8BF92B
:1048D4004A45187811D9484402A9C0B2019320F07E
:1048E400F7FE082241460DEB0200FEF75AFF0BF1DA
:1048F400010B019B0028E8D14C462B78A34207D139
:10490400631C3278DBB29A422B7004BF00232B70F5
:104914009AF8003041461C44E4B2204621F030F8B5
:1049240018B93946204620F0A1FE05B0BDE8F08F45
:10493400E5210020E7210020B00A0300E621002041
:104944000C4B13B51B681B681B78672B04D101A89B
:1049540013F03CFB02B010BD0020FEF7C9F804467A
:104964000120FEF7C5F801A9ADF80400204613F0B4
:10497400FDFAEFE75834002070B518F0E1F830B1D3
:10498400BDE87040094A0A490120FFF7EBBB094B17
:10499400094C1B6809491B6810221D7801236C2DE2
:1049A40018BF2146BDE87040FEF7DCB82DA7020011
:1049B400320B030058340020A61B0020B61B002035
:1049C4002DE9F04707468AB0A0B9FCF74BFC064630
:1049D400002526490120FFF7C5FB2C46DFF894800B
:1049E400DFF89490DFF894A0B44205D328460AB0C7
:1049F400BDE8F0870126EBE769462FB1012012F0EC
:104A04001BFC60B3FE2403E0204611F034F810B11F
:104A14000134E4B2E8E7224651460120FFF7BEFB29
:104A24000120FFF78BFB18B10DF11D00FFF70CFB04
:104A3400069A41460120FFF7B1FBBDF80030494614
:104A440013F0100F14BF79226E220120FFF7A6FB8A
:104A540001350DF10300FFF745FBEDB2D8E704493A
:104A64000120FFF79BFBFE24DAE700BFA70C03003D
:104A7400FA0C0300DC0C0300E40C0300F20C03004A
:104A8400F0B51E4989B00120FFF76CFB6946002090
:104A940013F048FE00241A4D1A4E1B4F10B1204645
:104AA40009B0F0BD012022462946FFF777FB01201B
:104AB400FFF744FB10B16846FFF7C6FA069A314681
:104AC4000120FFF76BFBBDF81E2039460120FFF7DC
:104AD40065FBBDF81C200D490120FFF75FFB013485
:104AE40002A8FFF7FFFAE4B209490120FFF73AFBF5
:104AF4006946204613F016FED0E700BF010D0300FF
:104B0400F20C0300DC0C03003D0D0300440D030014
:104B1400F701030000B58BB06946012012F08CFB4D
:104B240018B905980BB05DF804FB4FF0FF30F9E7B6
:104B340010B58CB002A813F049FA38B9BDF80830A2
:104B4400DB0703D42F490120FFF70CFB02A9032044
:104B540012F072FB20B12822FF2102A8FEF71AFEF0
:104B6400079B294A29490120FFF7FCFA9DF82430C4
:104B7400254A27490120FFF7F5FA234A2549012050
:104B8400FFF70CFB0DF10B00FFF7ACFAFFF7C2FFC8
:104B9400214A03461D490120FFF7E4FA1E4A1F4932
:104BA4000120FFF7DFFA0120FFF70AFF1A4A1C4928
:104BB4000120FFF7D7FA0020FFF702FF0446FCF7B5
:104BC40051FB2246034617490120FFF7CBFA164A48
:104BD40013490120FFF7C6FAFFF752FF13490128D2
:104BE400134B98BF0B461349CDE900030246124B01
:104BF4004FF0010088BF0B461049FFF7B3FA0CB021
:104C040010BD00BFE90B0300210C0300290C0300B5
:104C1400380C0300490C03007F3203004E0C0300E0
:104C2400540C03005D0C0300710C0300F701030036
:104C340057050300E50B030038CD02007F0C030089
:104C440010B50020FDF754FF0446003018BF0120C2
:104C54001BF01CF9054A064B0649002C08BF1A46EE
:104C6400BDE810400120FFF77DBA00BF480B0300E8
:104C74004D0B0300560B030008B50020FDF738FF69
:104C8400044B82B2188004490120BDE80840FFF7B4
:104C940069BA00BF1C200020970B030008B5002050
:104CA400FDF726FF034B18700120FDF721FF024B8F
:104CB400187008BDD9210020821B002038B50125B9
:104CC40005704FF6FB75A9429CBF6FEA43436FEA38
:104CD40053439DF8104003818472064B4260C07AAE
:104CE400082103EBC000FEF706FEBDE838400420AF
:104CF400FDF738BCF03400200948037873B919462D
:104D0400084AD3720133042B11731170516011815D
:104D1400917202F11002F4D101230370704700BFB5
:104D240028220020E821002038B5FFF7E5FF002401
:104D3400084D11F00EFA204400012B5C2BB911F040
:104D440008FA204405EB001038BD0134042CF0D1DE
:104D54000020F9E7E821002030B50546002485B09D
:104D6400007BFEF7A5FD174BE87A2C7003EBC0001F
:104D7400FEF7BEFD11F0EDF9134B00B203EB001387
:104D8400204602019A5C22B901300428F9D1FDF7CA
:104D940071FC696891B12B8901A843F38132C3F393
:104DA4000E03ADF806304FF6FF73ADF8083000235C
:104DB40002F002028DF8042003938847FEF77FFD7A
:104DC40005B030BDF0340020E821002038B5044699
:104DD400436808460D469847B4F90830002B02DBB7
:104DE4002B78042B06D1002320466360BDE83840AD
:104DF400FFF7B2BF38BD2DE9F34104460D4617460F
:104E04009846FFF791FF0646D8B14FF6FB724FF66E
:104E1400FD73944288BF1C46294643463A462046C1
:104E240000F086F9054601F0FDFE35B90090062331
:104E3400089A21463046FFF741FF284602B0BDE8F4
:104E4400F0817025F9E7F7B506460F46FFF76CFFCA
:104E5400054698B1002240231146304620F0B9FAA5
:104E6400044620F09BFB34B9009001233A463146B6
:104E74002846FFF723FF204603B0F0BD7024FAE76D
:104E840073B504460E46FFF74FFF054698B100225E
:104E94002046114620F048FB044620F07FFB3CB935
:104EA4000090234632464FF6FC712846FFF706FF72
:104EB400204602B070BD7024FAE7000038B5002423
:104EC40005460470FFF718FF0D4B9D420BD003F10C
:104ED400080295420ED003F1100295420CD018330B
:104EE4009D420BD10324074B03EB0410BDE838406B
:104EF400FFF732BF0124F6E70224F4E738BD00BF10
:104F0400F0340020E82100202DE9F0479CB014463D
:104F14001D4692F800A00F4611F01BF98146FFF7D9
:104F2400EBFE0A221023814813FB0923804600224A
:104F340003441978514506D113F80A6C1EB1398817
:104F440039B100268EE00132042A03F11003F0D1B6
:104F5400F7E791447B8808EB09173A8942F400404B
:104F64008342EED1617800297CD1A3F50043062B5E
:104F7400E7D801A151F823F0B5500000B550000066
:104F8400474F0000474F0000994F0000F3500000C6
:104F940071500000E179A379E07A03EB0123ADF8C5
:104FA4001C30617A237A0D3D03EB0123811DADF89A
:104FB4001E3014F811C0637915F001058DF8203006
:104FC4008DF80C008DF814C04CD1AE4609AB049397
:104FD40004F10C085FFA8EF9814508F102080AD23F
:104FE40018F801AC18F8029C09EB0A2923F81E9062
:104FF4000EF1010EEEE74900013103EB400301F02D
:10500400FF0106935FFA85FE0EEB0003E645DBB273
:1050140011D20DF1700E0EEB430304EB010E9EF85A
:10502400018014F801E002310EEB082E23F84CEC59
:10503400C9B20135E6E712F4004F0CBF0123032384
:10504400E1788DF80030A378C2F30E0203EB01235C
:105054006946ADF8043003ABADF80220029338463C
:10506400FFF7B4FE30461CB0BDE8F087042DF9D933
:10507400053D2379ADB29D42F4D1002BF2D012F458
:10508400004F0CBF01200320A378E178C2F30E0285
:1050940003EB01230534ADF8283003AB8DF80C5035
:1050A40004948DF82400ADF826200B9309A9D6E7C3
:1050B4000B2DD7D903AD0822A11C284608EB0918EB
:1050C400FEF70CFBB8F80830E17A13F4004F0CBF7C
:1050D400042203228DF82420A27AC3F30E0302EBE8
:1050E4000122ADF82820ADF826300B95DEE7042D1B
:1050F400B8D9E178A37803EB01232179ADF82830FE
:105104004B1DDBB2AB42ADD112F4004F0CBF0123F7
:105114000323C2F30E028DF82430053403ABADF83B
:1051240026200B9304948DF80C10BFE7E82100208F
:105134002DE9F341054601200E4690461F4618F01E
:105144007DF9FF2804461CD0022118F071F942466B
:105154000021204618F0B5FB4FF48253002F009332
:1051640028460DBF2346FF232246FF22314601F085
:1051740011FE0546204618F087F9284602B0BDE81E
:10518400F0811825F9E70000304B2DE9F041B0FB20
:10519400F3F24FF4616503FB1200B0FBF5F3DCB2EC
:1051A40005FB13033C25B3FBF5F3DBB2A0EB0410C2
:1051B4004B71C3EB0313A0EB83038B714FF4FA63BE
:1051C4000B8040F201134B8001230C711D46002417
:1051D40064264FF4C877DFF878C0944201D1BDE863
:1051E400F08188780BB1022829D00CEB000E1EF850
:1051F400018C91F803E0C64504BF013088708878BB
:1052040016BF0EF1010ECD7081F803E00D2814D104
:105214000B888D7001339BB298070B8012D1B3FBBE
:10522400F6F006FB103080B270B9B3FBF7F007FB61
:1052340010339BB2B3FA83F35B090134CDE74FF02B
:105244001D08D6E70023F8E70123F6E780510100A3
:105254004E0D030010B5044688B006A9FFF794FF6D
:105264000B499DF81B3008889DF81E109DF81A20E4
:1052740003919DF81D10049402919DF81C10019156
:10528400BDF8181000910349FEF76CFF08B010BD7B
:10529400E22100205A0D0300FDF7F2B9FDF782B9AF
:1052A400026810B51188174B1980518859805179BB
:1052B4001971117959714FF48251D980D1888906B5
:1052C40044BF4FF48351D980D2888169520642BFCA
:1052D400DA8842F04002DA800B4A137831B9C08888
:1052E4000A4923F002030880137010BD084C43F0F0
:1052F4000203137020461622FEF7F0F900232370F0
:10530400F3E700BF8E340020352200209A340020B9
:105314003622002010B5184C23685879FCF77AFA25
:10532400FF2822D0154B03EB0010027B237F9A4207
:105334001BD12368428819888A4205D04FF6FF7032
:10534400814212D1120410D42279023A012A06D9D8
:10535400A37B63B1BDE810400748FEF795BF1989E8
:105364005879FDF717F90028F2D1002010BD024842
:10537400BDE81040FEF7AEBF1035002040340020D9
:1053840008B5FCF747FA10B9024B187808BD00209D
:10539400FCE700BF3435002008B50020FEF788FA8A
:1053A400FF20FCF7ADFBFEF78AFAFCF797F8012122
:1053B40082B20A48FEF7EEF9094B0A4A52210A481A
:1053C400FDF750FAFBF72AF802F06DFB07F0AEFF89
:1053D40002F058FFBDE80840FCF76EBC34350020ED
:1053E4008E3400208C3400209C340020704708B593
:1053F40019F02EF820B917F0A3FB08B9FDF7B9F896
:10540400FDF731F9BDE80840FDF740B9F0B50022D9
:1054140007464FF6FF740B4E90B236F830500346F1
:10542400A54201D12046F0BDBD4209D1B7F57C4F5C
:10543400F9D306EBC3035B888B42F4D00029F2D086
:105444000132E9E7E811030010B50446FFF7DEFF77
:10545400094B014618884FF6FF73994214BF074B56
:105464002246BDE8104017BF03EBC10304495A6844
:105474000449FEF793BE00BFE2210020E8110300B7
:1054840057110300482D030073B515462E781A46AC
:1054940016F0040F14BF052603269E42089C08D963
:1054A400022000961D4A1E49FEF75CFE002002B051
:1054B40070BDBDF8183021712060E380A560A28121
:1054C4002B7803F00103A3732B7803F00403002B60
:1054D40014BF01210021E1732978C1F3C001617572
:1054E4004FF00101217517D02846FEF7C1F9237D3D
:1054F400208202332375237D5A1CD2B22275E95CC3
:105504000233A1742375AB5CE374079BA36110F0B1
:1055140020FE20770120CAE72382ECE72DA70200B2
:10552400BE110300034B18780130C0B2187000F0AC
:105534007F007047C81B0020044A137818B143F059
:1055440001031370704723F00103FAE735220020AA
:10555400014B1870704700BF3422002038B1074B4C
:105564001B78012B04D1038843F040030380704768
:10557400022BFCD1038823F04003F7E734220020F8
:1055840068B1074A1378012B07D1064B1B781370B7
:10559400037843F01003037001E0022BF8D0704746
:1055A4002A2200203322002073B51A4D06462A7899
:1055B400D4072CD4184B1978184B187840074CBFD3
:1055C400D9705970164912F00204098809D0134A97
:1055D4001448FCF7F0FF2B7823F002032B7002B081
:1055E40070BD114A10884FF6FB72904208D8CDE97D
:1055F40000360E4A0B4601462046FBF700F9EEE75B
:105604000A460096054B0949FBF7E0F8E7E7002056
:10561400E5E700BF35220020C71B00209C34002092
:105624008C340020362200209A3400208E3400204E
:105634000020FFF7B9BF000070B503790446012BC1
:105644000D46164631D883681B78DB0600D561B356
:10565400A37B13B9E37C0B2B27D00022144B1A80B5
:10566400637D9342E37B0CBF08201046ABB9FEF781
:10567400C9F8A07CFEF7C6F80B20FEF7C3F8E07C5F
:10568400FEF7C0F82846FEF7BDF82046FFF708FEEF
:105694003046BDE87040FFF787BF40F00400FEF7D6
:1056A400B1F8208AFEF7C2F8E3E7002070BD00BF1E
:1056B4008C340020024B0A4601461868FFF7BCBF31
:1056C400303500200021FFF7F5BF0022FFF7B4BFFB
:1056D400F0B4064618460F4BBDF810401B780E4D2B
:1056E400012B01D02F7827B1002129700846F0BC86
:1056F400704709B9002AF9D14BB14FF657439C4280
:1057040005D033460A462146F0BCFCF735BF0121DB
:10571400ECE700BFC61B0020292200202DE9F04F32
:10572400664C84462546964699460F46644E85B097
:105734000FCE0FC596E80F00DDF83C8085E80F001A
:10574400BDF83830CDE90184009372464B463946A2
:105754006046FFF799FEDFF8909170B90025FEF7D7
:1057640031F8162200215748FEF714F80023284682
:10577400C9F8003005B0BDE8F08F534BA27CC9F8DE
:1057840000401A70514B1B78002B36D0FFF786FD72
:105794004F4902460220FEF701FD2168A2894B7998
:1057A4004988022000914B49FEF7F8FC0220FEF7DD
:1057B400C5FC20B12368218A5888FFF745FEE37BA6
:1057C40023B1228A44490220FEF7E8FCA268E17C66
:1057D400A37C1278022000914049FEF7DFFC207D73
:1057E400A289A168121A01440123022092B2FEF791
:1057F4000DFC3B490220FEF7B5FC3048FFF750FD95
:105804002E48FBF72BFE05460028A8D1B8F1000F5F
:1058140025D12168E6880B88E07C0196BA1E498868
:10582400032A00918CBF002201220121FFF750FFBF
:10583400064638B923685B79FF2B38D0FFF76AFD39
:1058440005468CE72368DB889A06F3D40121254CAE
:105854001A482170FFF739FF257035467FE7B8F8FD
:1058640014309B07E6D479E73046FCF76BF88046A2
:105874003046FBF739FE98B12368228A598840469E
:10588400FBF7FCFF60B15046FFF70AFD23688BF875
:10589400048083F80580FFF73DFD002818BF054606
:1058A4000137FBF71BFEFEB2B042DDD857E70027F5
:1058B400DFF808A0DFF834B0F3E700BF10350020AC
:1058C4004C22002036220020C71B0020D01A0020C2
:1058D4006F1103007711030095110300A011030059
:1058E400A6A7020029220020303500208E34002093
:1058F40038B5D388054613F0200F0CBF5224492431
:105904000846590544BF083CE4B21A0544BF083CA4
:10591400E4B21B0444BF023CE4B2032D11D8DFE817
:1059240005F005020A0EC0B21FF0EAFE02F0DAF832
:10593400201AC0B238BDC0B210F058F9F6E7013CE5
:10594400E4B24FF6FD70F1E770B5064614460D4615
:1059540009B9317070BD0B78FF2B01D10370F9E7E1
:105964000846FDF78BFF844228BF0446E4B2224672
:10597400691C701CFDF7B2FE3470EBE770B5054688
:1059840014460E4611B96970297070BD0B78FF2B4F
:1059940005D14B78FF2B02D103704370F5E73046F5
:1059A400FDF771FF844228BF0446A4B22246B11C0D
:1059B400A81CFDF793FE2C70240A6C70E5E7F0B583
:1059C400002B3ED0042A3ED8002316461C46551E02
:1059D400ED00D6B9042A10D00121D200501E01FADC
:1059E40000F020421EBF914049420C4318421EBFA2
:1059F4004FF0FF3101FA02F213439C4227DCB4BF9B
:105A04004FF0FF30002040B2F0BD60B1871917F8A5
:105A1400017CAF403C438F1917F8017C013EAF4035
:105A24003B43083DD5E70746F3E770B1831813F805
:105A3400013C8C1814F8014CA34208D802F1FF323F
:105A440007D3002AF1D10020DEE70346F1E7012065
:105A5400DAE74FF0FF30D7E70023054AD15C8142F3
:105A640002D31344587870470233DBB2F6E700BF21
:105A740045110300283807288CBF002001207047F7
:105A84001D2812D004D850B11C2803D08A20704796
:105A94001F28FBD81B2934BF00208A2070470B39EC
:105AA4000F2994BF00208A2070470929F3E700F0EA
:105AB400E000A0280DD004D810B1802807D0FF2022
:105AC4007047C02807D0E028F9D11F2070471C2058
:105AD40070471D2070471E20704700F01F0070475C
:105AE40010B50C4608B9FDF7EDFE024B18715C7158
:105AF40010BD00BF3635002073B5154C0126237840
:105B0400144D13F0040F14BF04230223124A2988EE
:105B14001670124AE35C52884FF6FF7000911049E8
:105B2400FEF720FB2A880F494FF6FF70FEF736FB7D
:105B3400214633462A884FF6FF70FEF767FA4FF680
:105B4400FF70094902B0BDE87040FEF70BBB00BF0F
:105B540044350020423500207222002036350020D2
:105B6400081203002A120300F701030037B50020CE
:105B7400FCF7BEFF4FF48252114B124CDA8058806E
:105B84005222002321460120FCF7ECFF237813F076
:105B9400040F0D4B18BF03251B7808BF012513B153
:105BA400FFF7C0FC60550DF107010120FCF7BCFFB5
:105BB4009DF80720054B1A80FFF79EFF03B030BD08
:105BC4003635002044350020712200204235002063
